S015000048656C6C6F576F726C645F4F532E7372656312
S113000040240020E94B0000DD4B0000DF4B0000E2
S1130010E54B0000E14B0000E34B0000E74B000020
S1130020E74B0000E74B0000E74B0000E74B000004
S1130030E74B0000E74B0000BB2C0000650D0000FF
S1130040C9350000D3350000DD350000E735000078
S1130050F1350000FB350000053600000F360000C6
S113006019360000E74B0000E74B0000E74B0000A7
S1130070E74B0000E74B0000233600002D3600005C
S113008037360000413600004B360000553600007C
S11300905F36000069360000733600007D360000CC
S11300A087360000913600009B360000A53600001C
S11300B0AF360000B9360000C3360000CD3600006C
S11300C0D7360000E1360000EB360000F5360000BC
S11300D0FF36000009370000E74B0000133700002B
S11300E01D370000E74B00002737000031370000C0
S11300F03B370000E74B0000453700004F37000056
S113010059370000633700006D370000773700006F
S10F0110813700008B3700009537000099
S113011C10B5040000F061FDDFF82C08002101701B
S113012CDFF8280800210170DFF8C00800210170F5
S113013CDFF8BC0800210160DFF8B8080021016079
S113014CDFF8C80800210160DFF8C4080021017041
S113015CDFF8C00800680A21B0FBF1F0DFF8B8182A
S113016C0860DFF8B808006800280ED0DFF8B00883
S113017C0068002809D0DFF8A418096803E0491EB8
S113018C00220260001D0029F9D1DFF8C808002103
S113019C0160DFF8C40800210160DFF8C008002109
S11301AC0160DFF8BC0800210160DFF8B808002109
S11301BC0160DFF8B40800210160DFF85809002160
S11301CC016000F019FE00F05CFB200001F02BF93B
S11301DC208800283FD1200000F0C2F92088002894
S11301EC39D1200001F058FA2088002833D120009E
S11301FC01F0AEFD208800282DD1200001F01EFE58
S113020C2088002827D1200001F026FE2088002811
S113021C21D1200001F04CFE208800281BD12000A5
S113022C01F01CFF2088002815D1200002F089F869
S113023C208800280FD1200002F0F2F82088002832
S113024C09D1200002F0FAF82088002803D102F02A
S113025C75FA02F08BFB10BDDFF8F006007801286C
S113026C0BD1DFF8E4060078FA2806DADFF8D806B2
S113027C0078401CDFF8D0160870704710B50024C5
S113028CDFF8C806007801285BD102F0FBFB040000
S113029CDFF8B4060078002803D1200002F0F6FB46
S11302AC4FE0DFF8A4060078401EDFF89C160870B7
S11302BCDFF894060078002803D0200002F0E6FB57
S11302CC3FE0DFF828070078002803D0200002F074
S11302DCDDFB36E000F09AFDDFF83C180870DFF81F
S11302EC380800780C21DFF8342801FB0020006862
S11302FCDFF82C180860DFF828080068DFF82418E9
S113030C0968884203D1200002F0C0FB19E0DFF831
S113031C10080068D0F88C00401CDFF80418096839
S113032CC1F88C00DFF800080068401CDFF8F817EF
S113033C0860DFF8F8075FF080510160200002F0DC
S113034CA5FB10BD10B50024DFF8FC0500780028CF
S113035C3ED1DFF898060078002839D102F092FBE0
S113036C040000F053FDDFF8B0170870DFF8A8079D
S113037C00780C21DFF8A42701FB00200068DFF8CB
S113038CA0170860DFF898070068DFF89817096869
S113039C884203D1200002F079FB19E0DFF88007D2
S11303AC0068D0F88C00401CDFF874170968C1F899
S11303BC8C00DFF874070068401CDFF86C170860C9
S11303CCDFF868075FF080510160200002F05EFBEB
S11303DC10BD38B504000025DFF86C050078002842
S11303EC03D046F66250208026E0DFF860050078E2
S11303FC012803D045F6896020801DE0DFF8300722
S113040C0078FA2803DB45F20920208014E002F07E
S113041C39FB050002F0A6FBDFF814070078401C3A
S113042CDFF80C17087000F0E7FA02F0AFFB2800B5
S113043C02F02CFB0020208031BD38B504000025CF
S113044CDFF804050078002803D046F665502080B8
S113045C36E0DFF8F8040078012803D045F689600B
S113046C20802DE0DFF8C8060078002803D146F67A
S113047C6450208024E002F005FB050002F072FBBE
S113048CDFF8AC060078401EDFF8A4160870DFF81D
S113049CA0060078002808D002F078FB280002F0AF
S11304ACF5FA46F6635020800AE000F0BBFA02F03D
S11304BC6DFB280002F0EAFAFFF744FF00202080CD
S11304CC31BD10B50400DFF884040078002826D16F
S11304DC00F09CFCDFF840160870DFF85806DFF8D3
S11304EC381609780170DFF8300600780C21DFF833
S11304FC2C2601FB00200068DFF824160860DFF8C6
S113050C2406DFF81C1609680160DFF84004012199
S113051C017002F0BDFB43F69920208002E045F601
S113052C8A60208010BD10B5002402F0ABFA0400E0
S113053C02F018FBDFF800060068401CDFF8F81521
S113054C0860DFF8F8050068401CDFF8F015086057
S113055C02F01CFB200002F099FA00F035FBE4E7F2
S113056C00B589B0DFF8D01500220A60089003208A
S113057C0790002006900020059000200490DFF8DE
S113058CC00500680390DFF8BC0500680290DFF832
S113059CB80500680190072000900023DFF8AC2513
S11305ACDFF8AC15DFF8AC0500F06AFC09B000BD4F
S11305BC70B504000D001900DFF86805006880F8B8
S11305CC3420DFF860050068002280F83520DFF85D
S11305DC5405006800F0CEFA002D0ED015F1080673
S11305ECE56001222100DFF83C05006800F016F8F4
S11305FC2100300000F063F809E0DFF828050068FA
S113060C0021C187DFF81C05006800210163DFF8B5
S113061C14050168280000F01BF870BD10B4C287E3
S113062C016300230EE000244C6000240C600024C1
S113063C0C6100244C6100240C830024CC61886080
S113064C20315B1C9BB292B29342ECD310BC70472A
S113065C002809D04268C1F8C02010F108010968CB
S113066C8968096AC16113E091F83400022802D048
S113067C072805D009E0DFF8E004C1F8C00007E062
S113068CDFF8D804C1F8C00002E087A0C1F8C000AC
S113069C704785A2C1F8C02010F10801096800292F
S11306AC03D08968096AC16101E07FA1C161704707
S11306BC002101600021416000210181704710B4C8
S11306CC8A6892F837200389002B08D10122028111
S11306DC00224A6000220A600160416024E0038920
S11306EC5B1C0381046800E06468002C05D0A368DB
S11306FC93F83730D2B29A42F6D2002C06D10022AB
S113070C4A6042680A60516041600DE02268002A28
S113071C05D1216000220A604C60016004E022686B
S113072C0A604C605160216010BC704770B50400C5
S113073C266BE58F06E0F0680830310000F00AF80B
S113074C20366D1EADB2002DF5D10020E0870020BF
S113075C206370BD0289012A04D1002202600022A8
S113076C426013E00A68002A04D14B6800221A6024
S113077C03600BE04A68002A04D10A680023536022
S113078C426003E00A684B6853601A600289521E87
S113079C02810020486000200860704738B50500CD
S11307AC0C00049894F8361000290BD002290AD0B6
S11307BC08D3042906D006D3062929D002D3072945
S11307CC26D04AE049E094F83410032906D100906D
S11307DC9BB22100280000F041F803E0E265A4F884
S11307EC60302064002D06D02000FFF79FFF21000D
S11307FC2800FFF74EFF200000F0D9F9002084F800
S113080C3600002084F83500002084F8340024E0FD
S113081C94F83410032906D100909BB221002800CF
S113082C00F01CF803E0E265A4F8603020642000BA
S113083C01F00FF8002D06D02000FFF777FF210000
S113084C2800FFF726FF042084F83600002084F8E3
S113085C3500002084F83400FFE731BD30B40C6B54
S113086CC98F01E02034491E89B2002907D0E568FC
S113087CA842F7D12061626123830298E06130BC05
S113088C704700200BE0C0B20C21A44A01FB0021EC
S113089C00220A8100220A6000224A60401CC0B275
S11308AC0828F0D3704700002000000010B50400A5
S11308BC94F8370000F0BAFA94F837009D49097897
S11308CC884203D1200000F022F802E0200000F05E
S11308DC01F810BD90F837100C22904B02FB01313B
S11308EC0A89002A08D101220A810022C26000224E
S11308FC02610860486009E00A89521C0A810A688E
S113090CC260002202610A6810610860704790F8A6
S113091C37100C22814B02FB01310A89002A08D1C1
S113092C01220A810022C260002202610860486030
S113093C08E00A89521C0A810022C2604A680261DA
S113094CD060486070470000311C0020321C00202D
S113095C10B40189002902D0022901D00BD215E070
S113096C016842680A610023CB6000231361D160E3
S113097C026041600AE001684268CB6800241C6193
S113098C0024CC600A61D1600360416010BC7047E4
S113099C10B5040094F837000C21604A01FB0020C8
S11309AC2169E268002913D1002A0AD100210181AE
S11309BC002101600021416094F8370000F049FAED
S11309CC0FE00189491E018100211161026008E0D8
S11309DC03895B1E0381CA60002A01D1416000E0D7
S11309EC1161002020610020E06010BD351C002046
S11309FCCC1B0020D01B002080B54D48007801286A
S1130A0C03D102F093F95649086001BDD41B0020B0
S1130A1C361C0020504C0000D81B0020284C000031
S1130A2C244C000080B542480078002810D102F014
S1130A3C7DF94B490968401A4A490968814201D237
S1130A4C4849086048490968814201D2464908600E
S1130A5C01BD0000981B00209C1B0020A01B002043
S1130A6CA41B0020A81B0020AC1B002038B50400DC
S1130A7C00253E48007801284AD102F003F805000D
S1130A8C02F070F82068002805D102F07FF82800E5
S1130A9C01F0FCFF3CE02F49884205D102F076F8C6
S1130AAC280001F0F3FF33E0816D002902D0816D41
S1130ABC491E8165806D002805D002F067F8280076
S1130ACC01F0E4FF24E02089022805DA02F05EF844
S1130ADC280001F0DBFF1BE015480078002805D046
S1130AEC02F054F8280001F0D1FF11E02000FFF7C8
S1130AFC2FFF2068416D002903D11D4909688165C8
S1130B0C01E0416D816502F041F8280001F0BEFF5F
S1130B1C31BD0000B01B0020341C0020C81A00207A
S1130B2C181C0020141C0020F01B002004ED00E015
S1130B3C351C0020331C0020B41B0020E01B0020BB
S1130B4C1C4C0000184C0000144C00003305000031
S1130B5C684B0000E8160020044C0000D04B000049
S1130B6CCC1B0020D01B0020D41B0020361C0020E2
S1130B7CD81B002010B582B00400002910D000ABA3
S1130B8C0222200000F0D7FDBDF80000002803D19C
S1130B9C032084F8360006E0022084F8360002E0D4
S1130BAC022084F836002000FFF7F2FE13BD10B5C6
S1130BBC0400200000F04DFE94F83600400702D4E7
S1130BCC2000FFF773FE10BD80B57948006800283B
S1130BDC02D077480068804701BD764800687649A2
S1130BEC096811EB8000001F74490860704780B5D8
S1130BFC73480068002802D071480068804701BD22
S1130C0C80B570490968002902D06E490968884783
S1130C1C01BD80B56C490968002902D06A4909688C
S1130C2C884701BD80B569490968002902D0674924
S1130C3C0968884701BD10B40400019812EB8000C8
S1130C4C001F5FF080720260001F0460001F604A86
S1130C5C0260001F5FF012320260001F5FF003326B
S1130C6C0260001F5FF002320260001F0360001F6D
S1130C7C0160001F5FF011310160001F5FF0103143
S1130C8C0160001F5FF009310160001F5FF0083143
S1130C9C0160001F5FF007310160001F5FF0063137
S1130CAC0160001F5FF005310160001F5FF004312B
S1130CBC016010BC704780B546480068002802D01B
S1130CCC44480068804702F031F843490968434AB4
S1130CDC1268914215D040490968D1F89410411A10
S1130CEC3D4A1268C2F890103B490968D1F8981033
S1130CFC394A1268D2F890205118374A1268C2F84F
S1130D0C981036490968C1F8940001F0FFFE324985
S1130D1C0968D1F8B010814203D22F490968C1F88F
S1130D2CB0002D480068D0F8B4002D4909688842F9
S1130D3C05D2294800682A490968C0F8B410284823
S1130D4C0021016001BD80B526480068002802D04E
S1130D5C24480068804701BD10B5002401F092FEC0
S1130D6C040001F0FFFE20480078401C1E49087066
S1130D7C01F00CFF200001F089FE02F0F8F8FFF7F7
S1130D8C7DFA10BD401E194908601948006800021C
S1130D9C000A174908601748006850F00500154907
S1130DAC08601448006850F002001249086070474B
S1130DBCA41B0020284C0000244C0000901B002095
S1130DCCA81B0020981B00209C1B0020A01B0020AB
S1130DDC71150000AC1B0020141C0020181C0020F2
S1130DECD41B0020B01B0020311C002014E000E0B8
S1130DFC20ED00E010E000E0002004E01F49002298
S1130E0C41F82020401C0028F8D0704710B500246D
S1130E1C1A4801E02034001D01680029FAD000684A
S1130E2C01F037FE04192000C0B210BDC0B2420953
S1130E3CC0B210F01F010120D1F11F018840D2B2C1
S1130E4C0E4951F822100843D2B20C4941F8220041
S1130E5C7047C0B24209C0B210F01F010120D1F199
S1130E6C1F018840D2B2054951F8221031EA000022
S1130E7CD2B2024941F8220070470000941B0020B2
S1130E8C2DE9F24F82B00600170098460024149DF9
S1130E9CDFF8AC050078002803D047F24A1028800C
S1130EACB0E0002E03D147F2AD102880AAE0380040
S1130EBC002803D147F24F102880A3E0DDF83490CA
S1130ECCB9F1000F03D146F62C6028809AE0DDF8C6
S1130EDC3CA0DFF888060068824503D246F62D60F4
S1130EEC28808FE0DDF838B0D34503D346F62E6066
S1130EFC288087E00C9CE4B2082C03D346F27320C0
S1130F0C28807FE0E4B2072C07D1DFF85406864230
S1130F1C03D046F27320288074E0300000F094FA79
S1130F2C00202880139DE8070AD5A80708D5484651
S1130F3C002103E000220260001D491C5145F9D335
S1130F4C19EB8B0BADB20195CDF800A05B464A466C
S1130F5C41463800FFF76FFEB762C6F82C80029941
S1130F6C316286F837403060C6F808B01198706565
S1130F7C002804D1DFF800060068B06500E0B06515
S1130F8C12987060C6F82490C6F838A0B587002073
S1130F9C05E080B216EB80010022CA67401C80B2C7
S1130FAC0028F6D0109916F1640000F0C9FF300047
S1130FBCFFF726FE01F066FD040001F0D3FD96F860
S1130FCC3700FFF733FF3000FFF7A1FC300000F0CF
S1130FDCEEF9DFF8A8050088401CDFF8A01508809E
S1130FECDFF870060078012805D001F0CFFD200051
S1130FFC01F04CFD06E001F0C9FD200001F046FDB6
S113100CFFF7A0F9BDE8F78FF8B505000C00002632
S113101CDFF82C040078002803D047F24E1020800F
S113102C4FE0DFF83C05854203D147F24C10208099
S113103C47E0002D0CD101F025FD060001F092FDD6
S113104CDFF80004056801F0A1FD300001F01EFD7D
S113105C01F018FD060001F085FD95F83600002816
S113106C0BD0022833D02ED304282BD02FD3062810
S113107C2DD028D307282AD03FE02800FFF788FC7E
S113108C15F1640000F03AFF07002800FFF7C1FDDA
S113109C280000F0A3F9DFF8E4040088401EDFF810
S11310ACDC140880280000F0CFF9FF2085F8360006
S11310BC01F06CFD300001F0E9FCFFF743F900206E
S11310CC2080F1BDDCE7280000F0C3FBD8E7280042
S11310DC00F0BFFB95F83400002808D0401E07D060
S11310EC401E04D0401E032802D9001F04D103E083
S11310FC2800FFF71BFBFFE7C2E701F047FD3000B8
S113110C01F0C4FC46F62A602080DAE72DE9F041B0
S113111C0700884616001C000025DFF8240300781D
S113112C002804D046F2AE1020800020D3E0002E1C
S113113C01D00020306001F0A5FC050001F012FD87
S113114CDFF818050068406C00283ED0DFF80C0569
S113115C0068406C401EDFF8041509684864DFF829
S113116CFC040068476C002E04D0DFF8F00400681F
S113117C006C306001F0DAFDDFF8E0140968096CEA
S113118C401ADFF8D8140968C1F8A000DFF8CC04C1
S113119C0068D0F8A400DFF8C4140968D1F8A010D2
S11311AC884209D2DFF8B4040068DFF8B014096887
S11311BCD1F8A010C0F8A41001F0E8FC280001F04C
S11311CC65FC00202080380085E05FEA084009D5E2
S11311DC01F0DCFC280001F059FC46F2B010208030
S11311EC002078E0DFF878040078002809D001F0BA
S11311FCCDFC280001F04AFC46F663502080002008
S113120C69E03B00072200210020FFF7D1F901F02F
S113121CBDFC280001F03AFCFFF794F801F032FC15
S113122C050001F09FFCDFF83404006890F83500E9
S113123C002804D001282ED0032837D03EE0002EFD
S113124C26D0DFF818040068006C306001F06EFDE5
S113125CDFF808140968096C401ADFF800140968EF
S113126CC1F8A000DFF8F4030068D0F8A400DFF89C
S113127CEC130968D1F8A010884209D2DFF8DC031A
S113128C0068DFF8D8130968D1F8A010C0F8A410CE
S113129C0020208015E0002E04D0DFF8C003006885
S11312AC006C306046F2A91020800AE0002E01D0B8
S11312BC0020306047F2D920208002E046F62B60F3
S11312CC2080DFF898030068476C01F05FFC28006D
S11312DC01F0DCFB3800BDE8F08170B504000D00B2
S11312EC160001F023FD02003300290089B220000E
S11312FC00F046F970BD2DE9F04104000D00160014
S113130C1F005FF000084E480078002803D047F215
S113131C5810388049E0002D03D146F2D52038808E
S113132C43E0002E03D146F2D52038803DE001F095
S113133CA9FB804601F016FC002C02D1DFF81C033B
S113134C0468206800280CD101F020FC404601F010
S113135C9DFB002028600020306047F2521038803A
S113136C23E094F83C00C0070CD401F00FFC404679
S113137C01F08CFB002028600020306047F25410F0
S113138C388012E001F002FC404601F07FFB0020A3
S113139C616A01E0091D401C0A68002AFAD0286021
S11313ACA16B081A306000203880BDE8F081002160
S11313BCC0F8B810DFF8AC120968002903D1002179
S11313CCC0F8BC1007E0A7490968C0F8BC10A549CF
S11313DC0968C1F8B800A34908607047D0F8B82070
S11313ECD0F8BC10002A0AD19E4A1160002902D000
S11313FC0022C1F8B8200021C0F8BC1012E000296A
S113140C06D10021C2F8BC100021C0F8B81009E0C4
S113141CC2F8BC10C1F8B8200021C0F8BC100021DF
S113142CC0F8B81070478F4900220A605349002253
S113143C0A808D4900220A60002101807047000057
S113144C311C0020141C002010B504000020206066
S113145C0020A060002060600020E060002020617B
S113146C002060610020A0610020E0617F482062C0
S113147C002060620020A0620020E0620020206452
S113148C0020E0650020A4F86000002114F1640041
S113149C00F056FD002060670020A0670020C4F80F
S11314AC80000020A4F888000020C4F884000020E8
S11314BC05E0C0B214EB80010022CA67401CC0B224
S11314CC0028F6D0002060640020C4F8A00000209E
S11314DCC4F8A4000020A063002084F88A00002033
S11314ECC4F8AC000020C4F8A8000020A0875FF06A
S11314FC0040A0640020E0640020206500206065AA
S113150C0020A065002084F88B000020C4F88C0017
S113151C0020C4F8900001F009FCC4F894000020E9
S113152CC4F898000020C4F8B0000020C4F8B4003B
S113153C002084F83400002084F83500002084F85E
S113154C3600082084F837000020C4F8B8000020C6
S113155CC4F8BC0040A0C4F8C00010BD4C4C000042
S113156CE816002080B53D480068FFF75BFB00A936
S113157C0020FFF749FD01BDD81B00202A1C0020C8
S113158C2DE9F04182B007000C0090461E000025A6
S113159C01F078FA050001F0E5FA002F01D12F488B
S11315AC0768C7F840800020308097F83600002880
S11315BC0BD0022821D008D3042806D01DD306282A
S11315CC1BD002D3072818D038E0786C10F1010F27
S11315DC09D101F0DBFA280001F058FA46F6C5509F
S11315EC3080002034E0786C401C78647E6C01F010
S11315FCCDFA280001F04AFA29E097F834000728BC
S113160C12D1CDF800800023002239000020FFF70E
S113161CC5F87E6C01F0BAFA280001F037FA200400
S113162C0BD4FEF78FFE08E0786C401C78647E6C5B
S113163C01F0ACFA280001F029FA08E001F0A6FA4E
S113164C280001F023FA46F62A6030800026300088
S113165CBDE8F681321C002020000000141C002080
S113166C351C0020F41B0020F01B00200C4C000047
S113167C00B583B000AB01AA00210020FFF746FDA2
S113168CBDF800100029F5D1DFF8C003007801285B
S113169CF0D100F00EF9EDE710B58AB00400DFF8D4
S11316ACB00300210160DFF8AC030021016000F0FD
S11316BC2DF8DFF8A4030078072803D346F273202F
S11316CC208021E00894032007900020069000203D
S11316DC059000200490DFF8840300680390DFF881
S11316EC800300680290DFF87C0300680190DFF847
S11316FC6803007800900023DFF86C23DFF86C1388
S113170CDFF86C03FFF7BCFB0AB010BD00200BE044
S113171C80B2DFF8601311EBC00100220A600022D2
S113172C8A800022CA80401CDFF84C13098880B2DE
S113173C8842EDD3704730B492B2042A29D1C44AFA
S113174C12688A1A521ECD4CA24209D30021C164DC
S113175C002101650021C16147F27E20188076E0EA
S113176CC164511C0165C16CC34A1288B1FBF2F40B
S113177C02FB141189B2BF4A12EBC1018A88002AF8
S113178C32D10022426100228261086001228A80E7
S113179C54E000291ED092B2082A15D1826C8C1800
S11317ACAB4A1268A21A521E8A4201D2C46403E0E4
S11317BCA74A12688918C164C16CA54A1268891AAF
S11317CC0165C16C8164CEE7A14A12688A18C264AF
S11317DC0165C8E70021C164002101650021C161D4
S11317EC47F27E20188032E00A6805E0946984612F
S11317FC4261606190610022002A1CD0D46C944D2B
S113180C2D68641B1465146D056DAC420AD25469C1
S113181C002C01D05269EFE70024446182615061CD
S113182C0022E9E79469002CE0D100248461426130
S113183C90610860DFE78A88521C8A80CA888C8889
S113184CA24201D28A88CA80C1610020188030BCAF
S113185C7047C16900291CD0002202650A688242C3
S113186C06D142690A60002A08D00023936105E07E
S113187C826943695361002B00D09A610022426152
S113188C002282610022C2610022C2648888401E48
S113189C88807047002006E080B2764911EBC001C5
S11318AC0022CA80401C7449098880B28842F3D350
S11318BC70472DE9F041002401F0E4F8040001F034
S11318CC51F901F033FA050061480068401C604985
S11318DC08605F48006868490988B0FBF1F201FBB5
S11318EC120080B2634911EBC000D0F800800026CE
S11318FC00E0B846F6B2002E40F09780B8F1000F25
S113190C00F09180D8F8147098F8360000280BD0A9
S113191C022809D009D3042806D01CD3062803D0E6
S113192C42D3072856D0E4E7E3E7D8F84C004849FB
S113193C0968401AC8F8500045480068D8F84C109B
S113194C884206D1002088F836004046FFF72FF96C
S113195C00E00126CDE7D8F84C003D490968401A4F
S113196CC8F850003A480068D8F84C10884219D18D
S113197C0020C8F85C000020A8F8600001F0D6F93B
S113198CC8F840004046FEF7D1FE4046FFF70FF979
S113199C002088F83600032088F83500002088F8E9
S11319AC340000E00126A4E7D8F84C002849096863
S11319BC401AC8F8500026480068D8F84C108842E1
S11319CC06D1042088F836004046FFF742FF00E0B9
S11319DC01268EE7D8F84C001D490968401AC8F84E
S11319EC50001B480068D8F84C10884219D10020CC
S11319FCC8F85C000020A8F8600001F097F9C8F85A
S1131A0C40004046FEF792FE4046FFF722FF0420BA
S1131A1C88F83600032088F83500002088F8340054
S1131A2C00E0012665E7012664E701F07FF9401B1D
S1131A3C08490968814201D20649086001F0A6F8F8
S1131A4C200001F023F8BDE8F0810000321C0020D6
S1131A5CF81B0020FC1B0020BD4C00005C4C00005B
S1131A6C584C0000544C00007D160000904B0000B4
S1131A7C70180020F81900200E4000000100FFFF30
S1131A8C70B504000025DFF8580300210160DFF86D
S1131A9C540300210160DFF8500300210160DFF8DA
S1131AAC4C0300210160DFF8480300210160DFF8DA
S1131ABC440306682AE000F0E5FF050001F052F843
S1131ACC0020C6F8B0000020C6F8B4000020B067AF
S1131ADC0020C6F8A4000020C6F88C00002086F86C
S1131AEC8B000020C6F898000020C6F89C0001F07A
S1131AFC1DF9C6F8940016F1640000218181D6F812
S1131B0CBC6001F043F8280000F0C0FF002ED2D1D5
S1131B1CFFF7C0FE00F067FDB74806680EE000F062
S1131B2CB1FF050001F01EF816F12000002181819F
S1131B3CB66901F02BF8280000F0A8FF002EEED1B6
S1131B4C0020208070BD38B50400002500AA0021B7
S1131B5C022001F0F3F8BDF80000002803D0BDF812
S1131B6C000020803AE000F08DFF050000F0FAFF41
S1131B7CA2480021016001F009F8280000F086FF5A
S1131B8C00209F4909689F4A1268914205D29D48DA
S1131B9C00689B490968B0FBF1F0002804D199480E
S1131BAC00680A21B0FBF1F000AA002101F0C6F88C
S1131BBC00F068FF050000F0D5FF894800210160A2
S1131BCC91488E490968016090480121017000F028
S1131BDCDDFF280000F05AFF0020208031BD2DE9E4
S1131BECF04182B0002606E000AA00218448006877
S1131BFC400001F0A3F8854800780128F4D100A82E
S1131C0CFFF73EFF00247E4800687E49096888423D
S1131C1C05D27C4800687A490968B0FBF1F4002CC1
S1131C2C1DD1784800680A21B0FBF1F417E078481C
S1131C3C0078012805D176480021017000A8FFF72F
S1131C4C1FFF01F073F8401B65490968814201D2FA
S1131C5C6349086000AA0021200001F06FF801F02C
S1131C6C65F8050000F070FF6049086000F00AFF99
S1131C7C060000F077FF67486049096801605F4817
S1131C8C0021016000F082FF300000F0FFFE61488B
S1131C9C00685D490968884214D25B4800680028D2
S1131CAC0CD05C4800686421484357490968B0FB70
S1131CBCF1F0D0F164005849087006E056486421EC
S1131CCC017002E0544864210170FEF790FF002774
S1131CDC4848D0F8008015E000F0D4FE060000F06F
S1131CEC41FFD8F89800C8F89C000020C8F8980068
S1131CFC00F04CFF300000F0C9FED8F89C00C71966
S1131D0CD8F8BC80B8F1000FE6D16420B7FBF0F72B
S1131D1C3848D0F800800CE0002088F88B0000AB29
S1131D2C18F1A80218F1AC014046FFF7E4FAD8F810
S1131D3CBC80B8F1000F3FF47AAF002FECD0D8F888
S1131D4C9C00B0FBF7F0C0B26528E6D36420E4E74E
S1131D5C00B589B0294900220A602E4900220A6084
S1131D6C294900220A60294900220A7028490022C4
S1131D7C0A702A490968002903D146F62C610180AE
S1131D8C2CE027490968274A1268914203D246F687
S1131D9C2D61018022E024490978072903D346F2F6
S1131DAC732101801AE0089003200790002006900C
S1131DBC00200590002004901948006803901B48EB
S1131DCC006802901548006801901748007800904C
S1131DDC0023174A17491848FFF752F809B000BDF9
S1131DECEC1B0020FC1B0020041C0020B81B002052
S1131DFCD01B0020F41B0020C81B0020E01B00207B
S1131E0C384C0000504C0000E41B0020381C00200F
S1131E1C391C0020E81B0020371C00203C4C00001F
S1131E2C444C00004C4C0000BC4C0000404C0000E6
S1131E3CEB1B00007C4B0000AC1700200549002272
S1131E4C0A60034900220A800021018070470000C7
S1131E5C201C0020BC1B0020054900220A600349F9
S1131E6C00220A800021018070470000221C0020FF
S1131E7CC01B002010B4020010324B1E002109E0DC
S1131E8C026000244460002404810024C4601030E7
S1131E9C1032491C89B29BB29942F1D300210160E2
S1131EAC00214160002101810021C16010BC7047F8
S1131EBC10B5040067480068002803D145F21E7071
S1131ECC20801AE064480088002803D145F21D7074
S1131EDC208012E0604801885E480068FFF7CAFF62
S1131EEC5B485C490968016059485B4909888180F1
S1131EFC57480021C1800020208010BD41894289AF
S1131F0C002A1AD00268524B1B6813604268504B6B
S1131F1C1A604F4AD2884389D21A4D4BDA804C4A04
S1131F2C928843899A184A4B9A8000224281002253
S1131F3C82810022026000224260080080B2704755
S1131F4C0181002141810021818100210160002156
S1131F5C4160704770B44489002C0AD10020088079
S1131F6C002A01D00020106046F292501880002004
S1131F7C26E045686C682E890E80002A01D0E96839
S1131F8C1160296841604168002904D10021016075
S1131F9C0021418102E04189491E41812C4800689D
S1131FAC28602B4805602A488088401C2849888072
S1131FBC2748C088401E2649C8800020188020006D
S1131FCC70BC7047F0B4059C45890689B54203D3AF
S1131FDC46F29350208038E01D4DAD88002D03D17E
S1131FEC45F21D70208030E0194D2D68184E2F6875
S1131FFC3760174EB688761E154FBE80144EF68881
S113200C761C134FFE804689002E04D10560456072
S113201C012343810DE0DB0605D403681D60002316
S113202C2B60056002E043682B60456043895B1CB0
S113203C438183894689B34201D243898381696090
S113204C2A810498E86000202080F0BC70470000CE
S113205C681B0020344C0000C637000005490022E0
S113206C0A60034900220A800021018070470000A5
S113207C241C0020C41B00202DE9F04106000F0095
S113208C90461C000025B4480078002803D042F682
S113209CE16020802FE0002E03D145F6C350208050
S11320AC29E01FFA88F8B8F1000F03D146F29450D6
S11320BC208020E000F0E6FC050000F053FDA7486A
S11320CC30607760414689B216F12000FFF738FF83
S11320DC16F10800FEF7ECFA300000F01EF9A048E7
S11320EC0088401C9E49088000F050FD280000F038
S11320FCCDFC00202080BDE8F0812DE9F04F89B0A3
S113210C04000D0016001F005FF00008DDF84C9071
S113211C91480078002805D046F2AE10A9F80000CA
S113212C0020D4E0002C05D145F6C350A9F80000DA
S113213C0020CCE0002F05D146F2D520A9F80000F0
S113214C0020C4E0B6B23000002802D0B0F5004F35
S113215C23D120688149884225D1DDF848A0BAF101
S113216C000F02D00020CAF8000000F08BFC80465F
S113217C00F0F8FC4B465246390014F12000FFF7EE
S113218CE9FE8346B9F80000002812D100F0FEFCE9
S113219C404600F07BFC584699E045F62560A9F8CA
S11321AC0000002093E045F6C450A9F8000000207C
S11321BC8DE030040AD500F0E9FC404600F066FCE2
S11321CC46F2B010A9F80000002080E065480078C1
S11321DC00280AD000F0DAFC404600F057FC46F622
S11321EC6350A9F80000002071E02B0005222100A7
S11321FC00A8FEF7DDF900F0C9FC404600F046FCEF
S113220CFEF7A0F800F03EFC804600F0ABFC56480C
S113221C006890F83500002805D0022838D017D370
S113222C032826D045E050480068D0F85CB04E48EE
S113223C0068B0F860003880BAF1000F04D04A4846
S113224C0068006CCAF800000020A9F8000038E00F
S113225C5FF0000B00203880BAF1000F04D0424824
S113226C0068006CCAF8000046F2A910A9F8000036
S113227C27E05FF0000B00203880BAF1000F02D089
S113228C0020CAF8000047F2D920A9F8000018E091
S113229C5FF0000B00203880BAF1000F04D03248F4
S11322AC0068006CCAF8000045F6C250A9F800009A
S11322BC07E05FF0000B0020388046F62B60A9F88D
S11322CC000000F063FC404600F0E0FB584609B007
S11322DCBDE8F08F2DE9FC4105000E00170098466F
S11322EC089C002D03D145F6C350208013E02868C8
S11322FC1A49884203D045F6C45020800BE000F004
S113230C15FD0194009043469BB23A0092B2310001
S113231C280000F02DF8BDE8F3810EA1C161002165
S113232C416112490968002902D10021816105E04B
S113233C0E49096881610D49096848610B490860B7
S113234C70470A4900220A60054900220A800021CC
S113235C0180704720000000311C00205155455568
S113236C261C0020351C0020141C0020C81B002037
S113237C2DE9F04F83B004000D0016001F005FF030
S113238C000A00F07FFB824600F0ECFB14F108001D
S113239CDDF83080DDF834900189002916D1F80677
S11323AC01D4002300E01023CDF80490CDF8008074
S11323BC9BB2320092B2290014F12000FFF702FE06
S11323CC00F0E4FB504600F061FB27E0B90502D5B0
S11323DCB0F808B001E05FF0010B00680DE0816813
S11323EC40680190CDF8008033009BB22A00200095
S11323FCFEF7D4F90198BBF1010B1FFA8BFBBBF16F
S113240C000FECD100F0C2FB504600F03FFB380447
S113241C01D4FDF797FF0020A9F80000BDE8F78F61
S113242C054900220A60034900220A800021018028
S113243C70470000281C0020DC1B002000B589B06C
S113244CAF4900220A60AF490968002908D0AE4997
S113245C0968AC4A1268B1FBF2F1AC4A116006E0AF
S113246CA94909680A22B1FBF2F1A84A1160A849EA
S113247CA64A12680A60A14900220A60A5490022F2
S113248C0A6000210AE089B2A34A12EBC1020023BC
S113249C93800023D38000231360491C9F4A128825
S11324AC89B29142EFD39E490968002903D147F2BE
S11324BC463101802DE09B4909689B4A1268914280
S11324CC03D247F24631018023E098490978072961
S11324DC03D346F2732101801BE00890032007907C
S11324EC0020069000200590002004908D48006880
S11324FC03908F48006802908948006801908B48CB
S113250C0078009000230FF249128A498A48FEF79A
S113251CB7FC09B000BD10B4022280F82A2089B29D
S113252C012905D1416A754A1268511881610DE07F
S113253C016A002905D1416A704A126851188161F7
S113254C04E0016A6D4A1268511881618169734A09
S113255C1288B1FBF2F302FB131189B26E4A12EB2F
S113256CC1010A68002A07D10022026100224261DB
S113257C0860012088802EE08269604B1B68D21AA7
S113258CC2610B6805E05A694261036110615861CC
S113259C0023002B1CD09A69584C2468121BDA6156
S11325ACDA69C469A2420AD21A69002A01D01B69E9
S11325BCEFE700220261436118610023E9E75A69DD
S11325CC002AE0D100224261036158610860DFE710
S11325DC8888401C8880C8888A88904201D2888860
S11325ECC88010BC7047002106E089B24A4810EB41
S11325FCC1000022C280491C4848008889B281422B
S113260CF3D370478169454A1288B1FBF2F302FB9C
S113261C131189B2404A12EBC1010A68824206D1F5
S113262C02690A60002A08D00023536105E042695C
S113263C03691361002B00D05A61012280F82A200F
S113264C00220261002242618888401E8880704703
S113265CF0B583B00BE000F069FB041B00A8FDF798
S113266CECFE2C480068A04201D22A48046000AB5E
S113267C01AA00210020FEF749FD050000A8FDF782
S113268CA8FE00F053FB04001C480068401C1B49C6
S113269C08601A48006821490988B0FBF1F201FB73
S11326AC120080B21C4911EBC0000668002700E040
S11326BC0127FFB2002FCED1002EF9D035690F4877
S11326CC0068B169884216D13000FFF79BFF308D4A
S11326DC022804D101213000FFF71DFF02E0032082
S11326EC86F82A00B2681000002802D0F168300085
S11326FC90472E00DDE70127DBE70000081C0020D3
S113270C001C0020684C0000504C00000C1C0020E5
S113271C101C0020041C0020601A00201A4B00001E
S113272C6C4C0000744C00004C4C0000BE4C00007F
S113273C704C00003C4B00003419002045484649BD
S113274C080046490800464908004649080046491D
S113275C080046490800464908004649080046490D
S113276C08004649080046490800464908004649FD
S113277C08004649080046490800464908004649ED
S113278C08004649080046490800464908004649DD
S113279C08004649080046490800464908004649CD
S11327AC08004649080046490800464908004649BD
S11327BC08004649080046490800464908004649AD
S11327CC080046490800464908004649080046499D
S11327DC080046490800464908004649080046498D
S11327EC080046490800464908004649080046497D
S11327FC080046490800464908004649080046496D
S113280C080046490800464908004649080046495C
S113281C080046490800464908004649080046494C
S113282C080046490800464908004649080046493C
S113283C080046490800464908004649080046492C
S113284C080046490800464908004649080046491C
S113285C08007047264B00008C4C0000BF4C000055
S113286CC04C0000844C0000C14C00003C4A0000E9
S113287CC24C0000C34C0000C44C0000C54C00000A
S113288C904C0000924C0000C64C0000D84A00004A
S113289CC74C0000944C0000C84C0000964C00003F
S11328AC984C00009A4C0000104A0000C94C0000DF
S11328BCCA4C0000CB4C00009C4C0000CC4C0000DB
S11328CCCD4C00009E4C0000A04C0000A24C00001B
S11328DCA44C0000A64C0000A84C0000E0490000E9
S11328ECCE4C0000CF4C0000D04C0000D14C00006A
S11328FCAA4C0000D24C0000644A0000D34C0000E7
S113290CD44C0000D54C0000D64C0000AC4C00005C
S113291CAE4C0000884C0000D74C0000D84C000092
S113292CD94C0000DA4C0000DB4C0000DC4C0000FD
S113293CDD4C0000DE4C0000B04C0000DF4C00000D
S113294CE04C0000B24C0000B44C0000E14C000020
S113295CE24C0000AC490000E34C0000E44C0000E5
S113296CB64C0000B84C0000BA4C00002148224977
S113297C080022490800224908002249080022497B
S113298C080022490800224908002249080022496B
S113299C080022490800224908002249080022495B
S11329AC080022490800224908002249080022494B
S11329BC080022490800224908002249080022493B
S11329CC080022490800224908002249080022492B
S11329DC080022490800224908002249080022491B
S11329EC080022490800224908002249080022490B
S11329FC08007047804C0000144C0000184C000078
S1132A0C1C4C0000204C0000244C0000284C0000FE
S1132A1C2C4C0000C6370000304C0000344C000035
S1132A2CBC4C0000384C00003C4C0000404C0000F6
S1132A3C444C0000484C00004C4C0000504C00002E
S1132A4CBD4C0000544C0000584C00005C4C000081
S1132A5C604C00000E400000644C0000BE4C0000B2
S1132A6C684C00006C4C0000704C0000744C00006E
S1132A7C784C00001A4B00007C4C000072B6704776
S1132A8C62B67047EFF3108072B6704780F310880B
S1132A9C7047B0FA80F0704790FAA0F0704730BFDE
S1132AAC704720BF704710B450F8041B81B1026802
S1132ABC1218001D50F8043BDC0744BFA9F10104B3
S1132ACCE31852F8044B43F8044B091FF9D1EBE714
S1132ADC10BC704780B500F07DF800F082F800F06F
S1132AEC75F801BD10B50024FFF7CCFF040000F00D
S1132AFC39F810215D4800F073FA00F047F8200013
S1132B0CFFF7C4FF10BD5A490860704738B500255B
S1132B1C00F00CF80400FFF7B5FF05005548002140
S1132B2C01602800FFF7B2FF200032BD38B5002544
S1132B3CFFF7A8FF05004F4804682800FFF7A6FF1D
S1132B4C200000F088F832BD38B50025FFF79AFF55
S1132B5C0500494804682800FFF798FF200000F09E
S1132B6C7AF832BD80B545480088401C434908803A
S1132B7C43480088002803D100F0D8F84149086084
S1132B8C3F480088401C3E49088001BD80B53C4844
S1132B9C0088401E3A49088039480088002814D11E
S1132BAC00F0C4F8384908603748006835490968AA
S1132BBC401A30490968814201D22E4908602E49D5
S1132BCC0968814201D22C49086001BD80B5FFF728
S1132BDC89FF01BD80B526480021016000F09AF8F8
S1132BEC01BD70B500242548002101802448002132
S1132BFC01802448002101602348002101601D4804
S1132C0C002101601C480021016020480021016062
S1132C1C0025FFF737FF040000260AE015480021C1
S1132C2C0160FFF79FFFFFF7B1FF124800684519D9
S1132C3C761CB6B2002EF1D00120B5FBF0F013498E
S1132C4C08600C48002101600B4800210160200041
S1132C5CFFF71CFF70BD0D490968814203D20B4973
S1132C6C0968401A00E0002070470000581B00203F
S1132C7C781B0020881B00208C1B00201C1C0020AF
S1132C8C1E1C00207C1B0020801B0020841B0020A9
S1132C9C1748FF210170002080F30988154801684A
S1132CAC81F3088814481549016062B6FEE772B6D0
S1132CBCEFF3098028B1203880E8F00F1049096837
S1132CCC086000B50F4880475DF804EB0E480F49C7
S1132CDC0A7802700A480E490A680260106890E883
S1132CECF00F203080F309884EF0040E62B6704762
S1132CFC22ED00E0901B002004ED00E00000001029
S1132D0C141C0020C30C0000331C0020341C0020B5
S1132D1C181C002080B50748006850F001000549D4
S1132D2C086000F0CFF9FFF7EEFE01BD0248006821
S1132D3C70470000001000E0041000E0F8B5050036
S1132D4C0E0014000027DFF870020078002803D06E
S1132D5C47F27520208047E0DFF8600200780028F5
S1132D6C03D046F6635020803EE0B6B23000002813
S1132D7C05D0022803D0042824D0082823D1002D00
S1132D8C03D147F27E2020802EE0FFF77BFE070064
S1132D9CFFF7E8FEDFF828020068012180F83610FE
S1132DAC2300320092B22900DFF814020068FEF707
S1132DBCC2FC208800280AD0FFF7E8FE3800FFF791
S1132DCC65FE11E0E1E745F6256020800CE07C48C7
S1132DDC0068FDF7DDFDFFF7D9FE3800FFF756FE5E
S1132DECFDF7B0FA00202080F1BDF8B50024079D52
S1132DFC714E3678002E03D047F275202880B5E04A
S1132E0C6E4C2478002C03D046F663502880ADE039
S1132E1C069C14F00E06B6B23700002F05D0022F14
S1132E2C03D0042F17D0082F16D1002B0CD192B23B
S1132E3C002A09D189B2002906D180B2002803D115
S1132E4C47F27E20288091E04FF6E17C14EA0C0FC7
S1132E5C06D1002705E0F7E745F62560288085E0D4
S1132E6C0127FFB2012F03D145F6256028807DE0B0
S1132E7CC4F30014A4B214F00104E4B2012C1BD06A
S1132E8CB3F57A7F03D347F27B2028806EE092B2AD
S1132E9C3C2A03DB47F27A20288067E089B23C297C
S1132EAC03DB47F27920288060E080B2642814DBCD
S1132EBC47F27820288059E089B242F21074A1427A
S1132ECC03DB47F27920288050E080B2B0F57A7F9A
S1132EDC03DB47F27820288048E03A4C246880B21F
S1132EEC4FF4616789B25FF03C0C0CFB01F107FBFA
S1132EFC001092B210184FF4FA71B1FBF4F1C91826
S1132F0C01FB04F14FF47A72B1FBF2F104FB0017EC
S1132F1C002F28D0FFF7B6FD0400FFF723FE284846
S1132F2C0068012180F836102B00320092B239006F
S1132F3C23480068FEF7FFFB2888002805D0FFF71C
S1132F4C25FE2000FFF7A2FD10E01D480068FDF7E8
S1132F5C1FFDFFF71BFE2000FFF798FDFDF7F2F9AC
S1132F6C0020288002E047F27E202880F1BD10B5B5
S1132F7C82B0FDF7E8FE00AA00211348FEF7ADF974
S1132F8C0400124800780C21114A01FB0020FDF7C3
S1132F9C6DFD10480068401E0E4908600D4800681D
S1132FAC002808D10B480C490968016000AA0021CB
S1132FBC0A48FEF792F913BD311C0020351C002081
S1132FCC141C0020504C000070180020331C0020EE
S1132FDCC81A0020101C00200C1C002034190020DE
S1132FEC80B50A00002100F001F801BD30B4002ABC
S1132FFC27D0002825D00023002403E01B02C9B2EB
S113300C0B43641C042CF9D30425B0FBF5F404FB2A
S113301C1504E4B2002C08D003E00170401C521ECD
S113302C641C002A01D0042CF7D302E00360001DB9
S113303C121F042AFAD202E00170401C521E002A0C
S113304CFAD130BC704750F8041B61B150F8042B12
S113305CD30744BFA9F101039A18002342F8043B97
S113306C091FFAD1EFE7704780B51B4800F0B4F89C
S113307C1A4800F089F81A4800F086F8194800F04C
S113308C83F8194800F080F8184800F07DF81848C7
S113309C00F07AF8174800F077F8174800F074F845
S11330AC5FF0101000F070F8144800F06DF800F0A8
S11330BC79FA00F096FC00F01BFD00F0BBFD00F06B
S11330CC23FD01BD80B500F012F90D49B0FBF1F1FF
S11330DC0C4A116002BD00004005C0010200002032
S11330EC0400002008000020100000202000002014
S11330FC400000208000002000010020004000104F
S113310C40420F00701B002018B500F0704111F103
S113311C805F1ED10106890DDFF87823C0F30723E5
S113312CD31841EA431343F0844301241C60002365
S113313C01E0009B5B1C0093009B102BF9D3C0F3A4
S113314C0720101841EA401040F08440002101602F
S113315C11BD010F0FF2903252F8211082B2000C03
S113316C00F01F0002FA00F00A6802430A60002211
S113317C01E0009A521C0092009A102AF9D30A68B2
S113318C22EA0000086011BD00F0704111F1805F6B
S113319C04D1C0F30721DFF8002303E0010F0FF281
S11331AC543209E051180006800D40EA411040F0F9
S11331BC844001210160704752F821100A6883B2DF
S11331CC000C00F01F0003FA00F010430860704775
S11331DC0138FDD170477047F8B50446DFF8C45286
S11331EC286810F0E04F1FBF2868DFF8BC120840B5
S11331FCB0F1805F01D1002C78D4286E296F20F4B3
S113320C800040F4006641F400672E662F67B00717
S113321C01D5A00707D506F0010004F0010181F0E7
S113322C010108420FD064F0030006402E66002F03
S113323C2BD507F07000302818BF702829D04FF414
S113324C0020FFF7C5FF200960F30A16DFF85C02C3
S113325C3840DFF85C122140084304F0080140EACE
S113326CC1072E662F671020FFF7B2FF200B60F307
S113327C0D36600B60F34D374020A865002F47BF17
S113328C2F672E662E662F6706E006F03000302876
S113329CD5D14FF48050D4E7DFF818023040DFF872
S11332AC181221400843E10D61F3DC57610008D585
S11332BC40F4800027F48001DFF8002222401143FF
S11332CC01E027F0804122050AD44FF400422B6D13
S11332DC5B0601D4521EFAD120F4006021F4006183
S11332EC286629671020BDE8F24071E7F1BDF0B5FE
S11332FCDFF8B031196E1A6F002A4CBF02F0700659
S113330C01F03006DFF8B801DFF8B851DFF8984166
S113331C56B1102E35D0202E50D0302E6BD0602EBE
S113332C6CD0702E6DD06FE0C1F384100FF2D015F9
S113333C55F82000DFF8905105EA020616F1004F0B
S113334C04D0002A00D40E0500F182801E682640A9
S113335C5E4FBE425AD1524C23686468C4F30426AF
S113336C761C04F01F04641C74436400B0FBF4F07A
S113337C9C05A40DC3F3892343439B0A04FB00302F
S113338C64E01E6816F0E04F1DBF1E682640B6F1BF
S113339C805F4F48CED01E682640AE4202BF1D68E7
S11333ACADB2022D06D01D682540854204D11868A3
S11333BC000401D14748BDE74748BBE71E6816F037
S11333CCE04F1DBF1E682640B6F1805F4348B1D064
S11333DC1E682640AE4202BF1D68ADB2022D06D057
S11333EC1D682540854204D11868000401D13C486D
S11333FCA0E73C489EE747F230509BE74FF480002F
S113340C98E74FF4004095E70020F0BD5E6E06F09F
S113341C1F07C6F3481CD3F800E01EF0E04F1EBF94
S113342C1B682340B3F1805F04D10CF102035843B1
S113343CBB1C03E00CFB00F07B1C5B00B0FBF3F04B
S113344C730448BF4008330448BF800841F480012A
S113345C4B0218D5002A11D553000CD505EA0203EA
S113346C13F1004F03D0002A05D4090503D44000FE
S113347CC2F3865104E0C2F3C55101E0C1F3C35158
S113348C491CB0FBF1F0F0BD04490A6822F4F012B7
S113349C9BE6000000E50F4000E60F4060E00F40A3
S11334AC60E10F4000E00F400000FF708FFFFF7FD2
S11334BC30000080FCFF3FF80300C00700004040D0
S11334CC000003100000011000080080000005102B
S11334DCC0E1E400001BB7000024F400703839008C
S11334ECC0C62D0000093D0040E00F4044E00F40F1
S11334FC48E00F4000E10F4004E10F4008E10F40A9
S113350C40420F0000201C0080841E000080250017
S113351C999E36000040380000093D0000803E00B2
S113352C00004B00404B4C0000204E00808D5B0093
S113353C00C05D000080700000127A0000007D0065
S113354C80969800001BB7000080BB00C0E8CE003A
S113355C647ADA000024F4000000FA0080A8120156
S113356C002D310100366E0140787D0180B546286E
S113357C03D21030C0B200F059FC01BD70B5040088
S113358C0D000026462C0CD2FFF77CFA0600FFF740
S113359CE9FA884840F82450FFF7F8FA3000FFF7AE
S11335AC75FA70BD10B5002405E00FF20D21200052
S11335BCFFF7E4FF641C462CF7D310BD80B5002044
S11335CC00F0E7F801BD80B5012000F0E2F801BD80
S11335DC80B5022000F0DDF801BD80B5032000F0B9
S11335ECD8F801BD80B5042000F0D3F801BD80B536
S11335FC052000F0CEF801BD80B5062000F0C9F816
S113360C01BD80B5072000F0C4F801BD80B50820C9
S113361C00F0BFF801BD80B50E2000F0BAF801BD72
S113362C80B50F2000F0B5F801BD80B5102000F076
S113363CB0F801BD80B5112000F0ABF801BD80B528
S113364C122000F0A6F801BD80B5132000F0A1F8FB
S113365C01BD80B5142000F09CF801BD80B5152087
S113366C00F097F801BD80B5162000F092F801BD6A
S113367C80B5172000F08DF801BD80B5182000F03E
S113368C88F801BD80B5192000F083F801BD80B520
S113369C1A2000F07EF801BD80B51A2000F079F8EC
S11336AC01BD80B51C2000F074F801BD80B51D204F
S11336BC00F06FF801BD80B51E2000F06AF801BD62
S11336CC80B51F2000F065F801BD80B5202000F006
S11336DC60F801BD80B5212000F05BF801BD80B518
S11336EC222000F056F801BD80B5232000F051F8DB
S11336FC01BD80B5242000F04CF801BD80B5252017
S113370C00F047F801BD80B5272000F042F801BD58
S113371C80B5282000F03DF801BD80B52A2000F0CA
S113372C38F801BD80B52B2000F033F801BD80B50D
S113373C2C2000F02EF801BD80B52E2000F029F8C5
S113374C01BD80B52F2000F024F801BD80B53020D8
S113375C00F01FF801BD80B5312000F01AF801BD4E
S113376C80B5322000F015F801BD80B5332000F08F
S113377C10F801BD80B5342000F00BF801BD80B504
S113378C352000F006F801BD80B5362000F001F8B4
S113379C01BD10B50400FCF75FFD462C06D20548AC
S11337AC50F824000100002900D08047FCF766FD86
S11337BC10BD0000481400207047640010B50400CC
S11337CC00223C21DFF8F40200F008FC2100C9B20D
S11337DCDFF8E80200F013FC0321DFF8E00200F04C
S11337EC01FC10BD10B504000021DFF8D00200F07C
S11337FCE4FB0028F8D0DFF8C8020068FFF7E8FC07
S113380C2100C9B2DFF8B40200F0F9FB0121AB4886
S113381C00F0E8FB10BD70B504000D0017E00021AA
S113382CA64800F0CAFB0028F9D0A44800F0DCFB41
S113383C0600A3480068FFF7CBFC21789F4800F0F2
S113384CDEFB641C6D1E01219C4800F0CBFB002D9B
S113385CE5D170BD10B504000021984800F0ADFB13
S113386C0028F9D096480068FFF7B2FC2100C9B2D1
S113387C924800F0C4FB0521904800F0B3FB0021F2
S113388C8E4800F09AFB0028F9D08D480068FFF7A9
S113389C9FFC10BD10B58020FFF790FF06218948CE
S11338ACFFF7B9FF002403E00020FFF79BFF641C23
S11338BC5F2CF9D30020FFF7CDFF8020FFF77EFFAC
S11338CC06218148FFF7A7FF002403E00020FFF73F
S11338DC89FF641C5F2CF9D30020FFF7BBFF10BDDC
S11338EC70B504000D0016008020FFF767FF002E52
S11338FC01D1B02000E0B120C0B2FFF773FF8020EB
S113390CFFF770FF71480068401910F00F00FFF7C3
S113391C69FF8020FFF766FF6C48006840190009B6
S113392C10F00F0050F01000C0B2FFF75BFF402006
S113393CFFF758FF04E00020FFF754FF641CAD1D93
S113394C94F9000000282DD05B2D13D2052194F995
S113395C000005225E4B02FB0030A038FFF75BFF32
S113396C5A2D03D094F901000028E4D10020FFF76C
S113397C71FF17E0D5F15F0194F900000522544B57
S113398C02FB0030A038FFF746FF684294F90010A0
S113399C05224F4B02FB0131401810F8410CFFF784
S11339AC59FFFFE770BD10B5002417E049482018F3
S11339BC4078FFF703FF4748205C811E45482018D8
S11339CC801CFFF728FF4348205C00194149405CE8
S11339DCFFF740FF3F48205C401C04194D2CE5D3F5
S11339EC10BD10B582B03C4800F0C7FB3B4800F05A
S11339FCC4FB01213A4800F0A4FB01220121384800
S1133A0C00F08DFB6420009002E00098401E0090B2
S1133A1C00980028F9D100220121314800F07FFBE5
S1133A2C6420009002E00098401E0090009800284A
S1133A3CF9D1012201212A4800F071FB6420009085
S1133A4C02E00098401E009000980028F9D1032150
S1133A5C244800F084FB2448FFF756FBFFF747FC8F
S1133A6C01220100154800F07FFA20480068401C30
S1133A7C4421484312490860002417E015482018D3
S1133A8C4078FFF79BFE1348205C811E11482018D8
S1133A9C801CFFF7C0FE0F48205C00190D49405CE8
S1133AACFFF7D8FE0B48205C401C04194D2CE5D3C1
S1133ABCFFF7F0FEFFF777FF13BD00000010024084
S1133ACC741B0020F44B0000FC4B00000000002091
S1133ADC804700005C490000030006000304060054
S1133AEC0050024000600240004000100C100240E4
S1133AFC80B503214C4800F01CFB0A23012203214E
S1133B0C494800F0AFFA01BD80B50821464800F0E1
S1133B1C10FB8021454800F00CFB0421424800F0C6
S1133B2C08FB8021424800F004FB40213E4800F091
S1133B3C08FB0823042240213B4800F093FA40225E
S1133B4C4021394800F0EBFA0821374800F0D9FA43
S1133B5C8021364800F0D5FA0421334800F0D1FA1C
S1133B6C8021334800F0CDFA042208212E4800F0BD
S1133B7C5DFA042280212D4800F058FA0422042115
S1133B8C294800F053FA04228021294800F04EFA07
S1133B9C0420FFF7EBFC1F20FFF7E8FC0420FFF7E1
S1133BACE5FC0220FFF7E2FC01BD10B51400C0B225
S1133BBC00281CD1C9B200290CD108211A4800F0E4
S1133BCCABFA21000420FFF7D9FC0821164800F0B9
S1133BDC95FA28E08021154800F09EFA21001F2058
S1133BECFFF7CCFC8021114800F088FA1BE0C9B225
S1133BFC00290CD104210C4800F08EFA2100042079
S1133C0CFFF7BCFC0421084800F078FA0BE0802193
S1133C1C074800F081FA21000220FFF7AFFC802155
S1133C2C034800F06BFA10BD0040024000600240F3
S1133C3C0060004080B50020FFF726FC764800F0B9
S1133C4C9CFA764800F099FA02224021744800F05C
S1133C5CFBFAFFF74CFB4FF47A51B0FBF1F2402125
S1133C6C6F4800F007FB022280216D4800F0ECFA4B
S1133C7CFFF73DFB4FF47A51B0FBF1F28021684819
S1133C8C00F0F8FA00224021654800F000FB002205
S1133C9C8221634800F0FBFA00220521604800F001
S1133CAC09FB40215E4800F0EFFA80215C4800F0EB
S1133CBCEBFA08215B4800F03CFA0A2301220821A4
S1133CCC584800F0CFF90421564800F03AFA04227F
S1133CDC0421544800F023FA0321524800F031FA2D
S1133CEC0321514800F02DFA002203214D4800F025
S1133CFC16FA002203214C4800F011FA20214948FD
S1133D0C00F01FFA20222021464800F008FA01BDD9
S1133D1C80B5C0B200280ED1C9B2002905D1002249
S1133D2C0221414800F0FBF913E0022202213E4833
S1133D3C00F0F5F90DE0C9B2002905D102220221E7
S1133D4C384800F0ECF904E000220221354800F078
S1133D5CE6F901BD80B5C0B2002804D10121324876
S1133D6C00F006FA03E001212E4800F001FA01BD2F
S1133D7C80B5C0B2002809D101212B4800F0E1F92B
S1133D8C00220121284800F0CAF908E00121254845
S1133D9C00F0D7F900220121224800F0C0F901BD3E
S1133DAC10B50C00C0B200281AD1012204211C4801
S1133DBC00F080FA00220421194800F084FAFFF77D
S1133DCC96FA4FF47A51B0FBF1F0A4B260434FF47D
S1133DDCC841B0FBF1F28221114800F058FA19E005
S1133DEC012201210E4800F065FA002201210C4841
S1133DFC00F069FAFFF77BFA4FF47A51B0FBF1F05B
S1133E0CA4B260434FF4C841B0FBF1F24021044822
S1133E1C00F03DFA10BD0000010003000200070091
S1133E2C00800240007000400070024070B5002415
S1133E3CC0B2002817D0022816D015D3042814D0E9
S1133E4C12D3062837D023D308280CD00BD30A2836
S1133E5C09D008D30C2807D006D30E2804D002D3DB
S1133E6C0F283BD04DE076E075E0FEF70BFE040026
S1133E7CFEF778FEDFF8E000006850F48030DFF8DD
S1133E8CD8100860FEF782FE2000FEF7FFFD62E00A
S1133E9CFEF7F8FD0400FEF765FEDFF8BC000068D1
S1133EAC50F40030DFF8B0100860FEF76FFE20000D
S1133EBCFEF7ECFD4FE0FEF7E5FD0400FEF752FEC5
S1133ECCDFF89400006850F48020DFF88C10086050
S1133EDCFEF75CFE2000FEF7D9FD3CE0FEF7D2FDB8
S1133EEC0400FEF73FFEDFF87400006850F0010098
S1133EFCDFF868100860FEF749FE2000FEF7C6FDE7
S1133F0C29E0DFF85C100968491C11F01F01490114
S1133F1C1031C0B2C9B288421DD2C0B2B0F1100186
S1133F2C202291FBF2F5C0B21038202190FBF1F65F
S1133F3C06FB1106FEF7A6FD0400FEF713FEEDB218
S1133F4CDFF820000121B14040F82510FEF71EFED9
S1133F5C2000FEF79BFD70BD24ED00E010E000E0B6
S1133F6C04E000E000E100E070B504460D4616469E
S1133F7C00F01DF8012E0CBF1449154904F10C0076
S1133F8C142251434A19521EB2FBF1F1491E01602D
S1133F9C04F57C610968C90708D50E4949190E4A0C
S1133FACB1FBF2F1491E41F08001016070BD50F883
S1133FBC201F41F0100101607047002914BF806973
S1133FCC4069FFE700B10120C0B27047801A0600B7
S1133FDCA08601007F4737018047370142EA41013F
S1133FEC01607047416070474068C10705D410F008
S1133FFC120F02D000F01C00704700207047816043
S113400C70470D0030B5CB4300F58064D5072568A7
S113401C4CBF0D431D40256000F58460920747BFDB
S113402C0268114301681940016030BD30B5CB43BF
S113403C00F58164D50725684CBF0D431D402560F0
S113404C00F20444950725684CBF0D431D402560C0
S113405C00F20C40520747BF026811430168194033
S113406C016030BD70B5CC4300F5A065D6072E6851
S113407C4CBF0E4326402E6000F2045596072E6862
S113408C4CBF0E4326402E6000F5A16556072E68E2
S113409C4CBF0E4326402E6000F5A36512072A6818
S11340AC4CBF0A4322402A6000F20C52DD0715680B
S11340BC4CBF0D432540156000F5A2629D071568A1
S11340CC4CBF0D432540156000F214525D07156872
S11340DC4CBF0D432540156000F21C521D0715689A
S11340EC4CBF0D432540156000F5A560002B07BFA0
S11340FC0268114301682140016070BD00F58260C3
S113410C5CE000F582605DE019B100F58360006845
S113411C7047D0F814047047C0F81C14704740F86A
S113412C2120704701222946204601B0BDE83040C9
S113413C98E738B504460D460022FFF763FF0823C1
S113414CF0E738B504460D460823FFE70122FFF7D4
S113415C89FF012229462046BDE8384052E738B58C
S113416C00F002F80B23DDE704460D46022249E772
S113417C38B5FFF7F9FF0823D4E730B5C0F307418E
S113418C4A000FF24C030C4C2468012505FA01F18A
S113419C0C421ABF03EB8201496853F82210020A3D
S11341AC01F22C510B680F249440A34300F00F0030
S11341BC90401843086030BD6CE00F400268114316
S11341CC01607047026822EA010101607047000037
S11341DC0040004000800540005000400090054025
S11341EC0060004000A005400070004000B0054095
S11341FC0040024000C005400050024000D0054081
S113420C0060024000E005400070024000F00540F0
S113421C00D0034000000640001006400010064089
S113422C00200640002006400030064000300640C6
S113423C0040064000400640005006400050064036
S113424C0060064000600640401801686FF352019C
S113425C1143016000F124012030920704D5B022EF
S113426C02604FF4306003E08C22026040F60C00D4
S113427C08607047401800F11001006880074CBFBB
S113428C5008501E08607047081801680EE08B092E
S113429C10EB831003689B0748BF520803699A1AF2
S11342ACC90701D5C26170478261704741F00101B1
S11342BC016070470830012A02680CBF114322EADE
S11342CC0101016070470C30012A02680CBF1143D4
S11342DC22EA01010160704700B58BB009A8FBF715
S11342EC17FF09A8089003200790002006900020CF
S11342FC059000200490802003900C200290D54857
S113430C01900120009000230FF29502D249D3486A
S113431CFCF7B6FD09A8089003200790002006902E
S113432C0020059000200490802003900C20029023
S113433CCB4801900220009000230FF21902C949C6
S113434CC948FCF79DFD09A8FCF7BBF800200BB08D
S113435C00BD000010B584B000A80F2400F09AF939
S113436C1AE0002000F0CFF902A801900020009080
S113437C0023012200210020FEF737FD002000F06D
S113438CDBF902A8019000200090002301220021F7
S113439C0020FEF72AFD641EE4B2002CE1D11FBDFF
S11343AC10B584B000A8FEF75FFEFEF793FBFEF792
S11343BC89FE0400AD480068B4FBF0F0FCF7E2FCA5
S11343CC2000FEF7A0FB02A8FDF7BDFBFEF79EFB49
S11343DC02AB0A22A649A748FDF74EFEFFF701FBE4
S11343ECFFF728FCFFF790FB0FF2A5020021012038
S11343FCFFF7DBFB0FF2990200210020FFF7D5FB3E
S113440C3C233C221721172000F0BBF83C2300224C
S113441C0E21002000F0B5F84B234B225A215A20D0
S113442C00F0AFF83C2300220E21002000F0A9F884
S113443C4B234A220B210B2000F0A3F83B23002230
S113444C0F21002000F09DF84B234A2243214320E6
S113445C00F097F80023502200210D2000F091F871
S113446C3C233C220121012000F08BF8FFF712FAC7
S113447C00221E218048FFF733FA02A80190002085
S113448C00900023012200210020FEF7AEFCF4E78B
S113449C30B583B001217948FFF736FE04000121C1
S11344AC7648FFF731FE0500600708D504217348F0
S11344BCFFF732FE72480078401C714908702807D7
S11344CC08D508216D48FFF727FE6E480078401C7C
S11344DC6C4908706B4800786B49097888421ED384
S11344EC6748007869490978884218D368481121CB
S11344FC0170654800210170644800210170614815
S113450C002101705E480021017001A80090002375
S113451C04225F4801785748FDF7DCFE30E0594827
S113452C007859490978884212D3594810210170EE
S113453C55480021017053480021017001A80090D6
S113454C00230422524801784A48FDF7C3FE17E0C1
S113455C4B4800784D490978884211D34C480121C5
S113456C01704A480021017045480021017001A8DE
S113457C009000230422464801783E48FDF7AAFE29
S113458C37BD7FB514001D0000263F4A10703F480C
S113459C01700020FFF7ECFB0120FFF7E9FB21027F
S11345AC89B20020FFF7FCFB290289B20120FFF736
S11345BCF7FB00210020FFF7ABFB00210120FFF7E4
S11345CCA7FB0020FFF7C6FB0120FFF7C3FB02A8E3
S11345DC0190002000900A23002200210020FEF705
S11345EC04FC02A8019003A800900DF10A03002218
S11345FC00212048FDF781FD0600F6B2112E0CD1E6
S113460C0120FFF7B5FB0020FFF7B2FB1E48002189
S113461C01701E480021017012E0F6B2102E06D172
S113462C0020FFF7A5FB18480021017008E0F6B242
S113463C012E05D10120FFF79BFB144800210170CA
S113464C114800780028CCD1104800780028C8D133
S113465C7FBD000048060020A44B0000601500201C
S113466C48080020B44B000024160020504C0000D5
S113467C544B0000281B0020C44B00000040024097
S113468C2F1C00202E1C00202C1C00202D1C002074
S113469C301C002080B53548006850F020003349A8
S11346AC08603348006810F5A060006850F03000D2
S11346BC2F49096811F5A06108602D480068D0F8ED
S11346CC1C0550F030002A490968C1F81C0528481B
S11346DC006810F58060006850F0300024490968C7
S11346EC11F5806108602248006810F58460006848
S11346FC30F030001E49096811F58461086000200F
S113470C00F01AF801BDC0B2002803D002280CD066
S113471C06D310E0164800683021C0F8C0100AE037
S113472C134800681021016405E011480068202139
S113473CC0F88010FFE77047C0B2002803D00228ED
S113474C0CD006D310E00A4800680021C0F8C01051
S113475C0AE0074800680021016405E00448006889
S113476C0021C0F88010FFE77047000008E10F40FB
S113477C04000020000000000000004F00000007AF
S113478C000700147F147F14242A7F2A1223130891
S113479C646236495522500005030000001C224176
S11347AC000041221C0014083E081408083E0808A6
S11347BC0050300000080808080800606000002061
S11347CC100804023E5149453E00427F40004261BC
S11347DC5149462141454B311814127F1027454548
S11347EC45393C4A4949300171090503364949495F
S11347FC36064949291E003636000000563600009C
S113480C0814224100141414141400412214080234
S113481C01510906324979413E7E1111117E7F49BD
S113482C4949363E414141227F4141221C7F49493D
S113483C49417F090909013E4149497A7F08080821
S113484C7F00417F41002040413F017F08142241F9
S113485C7F404040407F020C027F7F0408107F3E63
S113486C4141413E7F090909063E4151215E7F09C0
S113487C192946464949493101017F01013F40400C
S113488C403F1F2040201F3F4038403F6314081412
S113489C6307087008076151494543007F41410093
S11348AC02040810200041417F000402010204406C
S11348BC40404040000102040020545454787F4886
S11348CC4444383844444420384444487F3854548D
S11348DC5418087E0901020C5252523E7F080404FB
S11348EC7800447D40002040443D007F1028440063
S11348FC00417F40007C041804787C080404783858
S113490C444444387C14141408081414187C7C088B
S113491C0404084854545420043F4440203C404070
S113492C207C1C2040201C3C4030403C4428102857
S113493C440C5050503C4464544C440008364100E0
S113494C00007F000000413608000201020402004E
S113495C0480AE80E30680AD808A80E30680A88064
S113496C1F80E30480C880E30480A080E30480D823
S113497C80E304800580E304804080E3068081802A
S113498C5D80E30680D9801180E30680D5800180A8
S113499CE30680D3800080E30480AF80E300000052
S11349AC00000000000000000000000000000000F7
S11349BC00000000000000000000000000000000E7
S11349CC00000000000000000000000000000000D7
S11349DC00000000000000000000000000000000C7
S11349EC00000000000000000000000000000000B7
S11349FC00000000000000000000000000000000A7
S1134A0C0000000000000000000000000000000096
S1134A1C0000000000000000000000000000000086
S1134A2C0000000000000000000000000000000076
S1134A3C0000000000000000000000000000000066
S1134A4C0000000000000000000000000000000056
S1134A5C0000000000000000000000000000000046
S1134A6C0000000000000000000000000000000036
S1134A7C0000000000000000000000000000000026
S1134A8C10B5074979441831064C7C44163404E0BB
S1134A9C0A68081D511888470146A142F8D110BD77
S1134AAC08000000280000009FE5FFFF341C0000F4
S1134ABC0800002000000000EFDFFFFF08000000EA
S1134ACC1C02000000000020000000000000000098
S1134ADC00000000000000000000000000000000C6
S1134AEC00000000000000000000000000F00BF8C3
S1134AFC002801D0FFF7C4FF0020C046C046FFF7D2
S1134B0CEBFB00F002F80120704700F001B80D0037
S1134B1C0746384600F002F8FBE7010080B5C046B2
S1134B2CC046024A11001820ABBEFBE72600020067
S1134B3C75432F4F532D4949492054696D65722093
S1134B4C5461736B00000000495352204D6573731C
S1134B5C61676520517565756500000075432F4FBD
S1134B6C532D4949492049646C65205461736B0089
S1134B7C75432F4F532D4949492053746174205464
S1134B8C61736B0075432F4F532D49494920546968
S1134B9C636B205461736B00417070205461736BB0
S1134BAC2053746172740000417070205461736BF3
S1134BBC204C454400000000444F4E452021212147
S1134BCC000000005461736B2053656D00000000FD
S1134BDCFEE7FEE7FEE7FEE7FEE7FEE7C046C0465B
S1134BECC046C046FFF782FFB0800480104000002E
S1134BFCB1800480104000005461736B205100009C
S1134C0C3F5461736B000000480A00200C00000044
S1134C1C8000000000020000480C0020800000000E
S1134C2C0002000040060000080000200A000000FA
S1134C3C480E00200C000000800000000002000060
S1134C4C40000000E8030000481000200C000000A5
S1134C5C8000000000020000680000000A00000050
S1134C6C481200200C00000080000000000200002C
S1134C7C6800000010110000785634126000000027
S1134C8CEA030000280004002000100008001000B3
S1134C9C2C0020000C00200008000400040030004C
S1134CAC28000C000100C400080034000800F8754A
S1134CBC06050601010101000000000101010000CC
S1134CCC01000100000001010000010401010101C7
S1134CDC01000100010101010100000004000000B9
S1074CEC005002402E
S9034BE9C8
